:040000050002028172
:020000040002F8
:1000000098CFFF1F310402006B390200E51802008F
:10001000650402006704020069040200B2CCF3DF49
:100020008F9E939B21999697FD000000FD02020090
:100030006D04020000000000A90302001D0402007C
:10004000B9190200C9190200D9190200E919020000
:10005000F9190200091A0200191A0200291A0200ED
:10006000391A0200491A0200591A0200691A0200DC
:10007000791A0200891A0200991A0200A91A0200CC
:10008000B91A0200C91A0200D91A0200E91A0200BC
:10009000F91A0200091B0200191B0200291B0200A9
:1000A000391B0200491B0200591B0200691B020098
:1000B000791B0200891B0200991B0200A91B020088
:1000C000B91B0200CD1B0200E11B0200F51B020060
:1000D000091C02001D1C0200311C0200451C02000C
:1000E000591C02006D1C0200811C0200951C0200BC
:1000F000A91C0200BD1C0200D11C0200E51C02006C
:10010000F91C02000D1D0200211D0200351D020018
:10011000491D02005D1D0200711D0200851D0200C7
:10012000991D0200AD1D0200C11D0200D51D020077
:10013000E91D0200FD1D0200111E0200251E020025
:10014000391E02004D1E0200611E0200751E0200D3
:10015000891E02009D1E0200B11E0200C51E020083
:10016000D91E0200ED1E0200011F0200151F020031
:10017000291F02003D1F0200511F0200651F0200DF
:10018000791F02008D1F0200A11F0200B51F02008F
:10019000C91F0200DD1F0200F11F0200052002003E
:1001A000192002002D2002004120020055200200EB
:1001B000692002007D20020091200200A52002009B
:1001C000B9200200CD200200E1200200F52002004B
:1001D000092102001D2102003121020045210200F7
:1001E000592102006D2102008121020095210200A7
:1001F000A9210200BD210200D1210200E521020057
:10020000F92102000D220200212202003522020003
:10021000492202005D2202007122020085220200B2
:1002200099220200AD220200C1220200D522020062
:10023000E9220200FD220200112302002523020010
:1002400039230200692402000D280200D12802008F
:100250005D2B0200730402007304020073040200A9
:10026000AD2C0200292F020021310200C53202000C
:10027000A5330200653502005937020055380200E7
:10028000DFF80CD000F0C4F900480047ED8102000F
:1002900098CFFF1F80F309887047EFF309807047FC
:1002A000684680F3098804480078C00714BF02201C
:1002B000032080F31488704728C00200DFF818C0BC
:1002C000EFF305831B0618BF6047EFF31483DB07CA
:1002D00008BF604700DF7047A18D0200DFF818C03B
:1002E000EFF305831B0618BF6047EFF31483DB07AA
:1002F00008BF604700DF7047AD8F0200EFF3098051
:10030000816911F8021CC9BB10B590E80F10E047D5
:10031000BDE81040EFF3098C204B93E806009142B2
:1003200029D081B10CB41EF0100F06BF2CED108A3D
:100330000323012381F821302CE9F00FC1F824C0F8
:1003400009F0C0F80CBC1A60D2F824C0BCE8F00F69
:1003500092F8213013F0020F1ABFBCEC108A6FF034
:10036000120E6FF0020E8CF3098813F0010F08BF14
:10037000704792F82000CCF80000704710B5084A8A
:100380001268914209D8074C54F8214090E80F10A8
:10039000A047EFF3098C8CE80F0010BDA482FF1F6B
:1003A0008C0602008C06020010B508F077FFBDE84D
:1003B0001040194B93E80600914208BF70470CB4F7
:1003C000EFF3098C1EF0100F06BF2CED108A0223EC
:1003D000002381F821302CE9F00FC1F824C009F086
:1003E00071F80CBC1A60D2F824C0BCE8F00F92F887
:1003F000213013F0020F1ABFBCEC108A6FF0120EFE
:100400006FF0020E8CF3098813F0010F1CBF92F8F5
:100410002030CCF800307047A482FF1F10B509F0DF
:1004200013F9C4E710B508F0A9F809F00DF9BEE713
:1004300010484FF0770101600F484FF077010160DD
:100440000E484FF4885101600A484FF07601016070
:1004500009484FF076010160094880470948004784
:10046000FEE7FEE7FEE7FEE7FEE7FEE7FEE7FEE764
:10047000FEE7FEE7040805400C08054000080540BB
:10048000C9440200810202002DE9F05F0546002008
:1004900092469B4688460646814640241BE02846F5
:1004A00041464746224600F0A3F853465A46C01A32
:1004B000914110D311461846224600F08AF82D1AB1
:1004C00067EB01084F4622460120002100F081F829
:1004D00017EB00094E41201EA4F10104DFDC484661
:1004E00031462A464346BDE8F09F10B5431A934271
:1004F00009D28318881803E010F8011D03F8011DC4
:10050000521EF9D210BD40EA01039B0703D009E057
:1005100008C9121F08C0042AFAD203E011F8013BEF
:1005200000F8013B521EF9D210BDD2B201E000F832
:10053000012B491EFBD270470022F6E710B5134687
:100540000A4604461946FFF7F0FF204610BD421E3A
:1005500012F8013F002BFBD111F8013B02F8013BDF
:10056000002BF9D17047421C10F8011B0029FBD168
:10057000801A704730B504460020034600E05B1C3B
:10058000934203D2E05CCD5C401BF8D030BD30B567
:1005900005460020034600E05B1C934205D2EC5C5C
:1005A000C85C201A01D1002CF6D130BD0321001DFA
:1005B000491E10F8013D43EA0222F9D51046704762
:1005C0000346032201F8010B000A521EFAD5184611
:1005D0007047202A04DB203A00FA02F1002070471D
:1005E0009140C2F1200320FA03F319439040704771
:1005F000202A04DB203A21FA02F00021704721FA78
:1006000002F3D040C2F120029140084319467047DE
:10061000064C074D06E0E06840F0010394E807004F
:1006200098471034AC42F6D3FFF72EFE4CD50200AB
:100630007CD5020070B58C1810F8015B15F007032B
:1006400001D110F8013B2A1106D110F8012B03E06B
:1006500010F8016B01F8016B5B1EF9D12B0705D473
:100660000023521E0DD401F8013BFAE710F8013BBC
:10067000CB1A921C03E013F8015B01F8015B521ED8
:10068000F9D5A142D8D3002070BD000000000000C1
:1006900048F2010CC1F6FF7C604700000F4940B1F1
:1006A00001280BD002280ED0032811D091F8410068
:1006B00001E091F83C00C0F30000704791F83C0065
:1006C000C0F3C000704791F83C00C0F34010704781
:1006D00091F83C00C0F380107047000000400540D6
:1006E00018B50021174A0B4600914AF20151A2F8B1
:1006F000FE13B8B192F82A0020F0010082F82A0017
:100700004FF480540220FFF7C9FF0099491C009163
:10071000A14201D20128F5D14FF42540A2F8FE03F1
:10072000184618BD92F8260000F00700052806D0EC
:1007300092F82A0040F0010082F82A00ECE7012339
:10074000EAE700000040054000283AD01D49D1F8F2
:100750000021120601D41C4A00E01C4A0369B2FBC6
:10076000F3F24AF20152A1F8FE230278D1F80031E7
:10077000521E62F31F73C1F800310279D1F80031C3
:10078000521E62F31B63C1F80031027AD1F80031C6
:10079000521E62F31753C1F800318289D1F800313B
:1007A000521E62F31023C1F80031007CD1F8002101
:1007B000401E60F30402C1F800214FF42540A1F867
:1007C000FE0370470040054000127A000024F40048
:1007D00007494AF20152A1F8FE23D1F8002160F343
:1007E000C712C1F800214FF42540A1F8FE0370475D
:1007F0000040054010B485B0214B002400941968D6
:1008000001915968029199680391D9681D4A049130
:1008100092F8261001F00701052901D005280AD118
:1008200019491960C91259609960D9600099491C29
:100830000091B029FAD34AF20151A2F8FE1312F83E
:10084000261F60F3020111704FF42540A2F8D8036F
:1008500000940098401C0090B028FAD301981860CA
:1008600002985860039898600498D86000940098A3
:10087000401C0090B028FAD305B010BC03F0E6BDD0
:100880000080044000400540EEFAFFFF30B585B01F
:100890002449002300930A6802924A6803928A68F6
:1008A0000192CA68204C049294F8262002F00702B4
:1008B000052A14D10A6842F480320A604A681B4D46
:1008C0002A434A60019A62F400428A60CA6842F090
:1008D0001302CA60009A521C0092B02AFAD34AF25C
:1008E0000152A4F8FE2314F8242F60F3071222709B
:1008F0004FF42540A4F8DA0300930098401C0090C0
:10090000B028FAD30298086003984860019888607C
:100910000498C86000930098401C0090B028FAD357
:1009200005B030BD008004400040054009010F00C3
:1009300070B585B0284A0023009311680191516871
:10094000029191680391D1680491002841D0234C11
:1009500094F8261001F0070105290AD120491160F9
:10096000C91251609160D1600099491C0091B02971
:10097000FAD34AF20151A4F8FE138178C57846797A
:1009800041EA051105792D0245EA063529438579A5
:1009900041EA05414578007841EA055141EA0060A5
:1009A00020624FF42540A4F8FE0300930098401CF9
:1009B0000090B028FAD30198106002985060039814
:1009C00090600498D06000930098401C0090B0287C
:1009D000FAD305B070BD000000800440004005401F
:1009E000EEFAFFFF08B502460020144900904AF2D3
:1009F0000150A1F8FE0391F82E00012A02D040F028
:100A0000010001E020F0010081F82E004FF42540A4
:100A1000A1F8FE034FF480530320FFF73FFE009937
:100A2000491C0091994204D2012A04D0002181423C
:100A3000F2D1002008BD0121F9E700000040054087
:100A400000283AD01D49D1F80021120601D41C4AD1
:100A500000E01C4A0369B2FBF3F24AF20152A1F82A
:100A6000FE230278D1F80431521E62F31F73C1F8DD
:100A700004310279D1F80431521E62F31B63C1F8CC
:100A80000431027AD1F80431521E62F31753C1F8CF
:100A900004318289D1F80431521E62F31023C1F867
:100AA0000431007CD1F80421401E60F30402C1F837
:100AB00004214FF42540A1F8FE0370470040054093
:100AC00000127A000024F40018B500211B4B0A46DE
:100AD00000914AF20151A3F8FE13B8B193F8320025
:100AE00020F0010083F832004FF480540120FFF71A
:100AF000D5FD0099491C0091A14201D20128F5D1F0
:100B00004FF42540A3F8FE03104618BD93F82600C5
:100B100000F0070003280ED0D3F80001000603D42C
:100B200093F82A00C00706D093F8320040F0010085
:100B300083F83200E4E70122E2E7000000400540CC
:100B400010B5002818D00D4B4AF20151A3F8FE133E
:100B50000B4904780A7864F3C7120A7044780A785B
:100B600064F386120A708278087862F305100870C0
:100B70004FF42540A3F8FE0310BD000000400540DF
:100B8000104405407CB504780D4634B1012C05D0E5
:100B900000242C704FF001107CBD01241649012067
:100BA000164A08700021C2F88012C2F8A802C2F8E2
:100BB0008402C2F88402C2F88802009101918DF883
:100BC00000008DF804006A46810202F035FF6A4693
:100BD0000221012002F030FF6A460221012002F0CA
:100BE0002BFF6A460421012002F026FF01216A46FC
:100BF000084602F021FFCCE7EC83FF1F0000A7426C
:100C00002DE9F04102787F2A03D0BDE8F04100F0E1
:100C100019B801F8012B447801F8014B861C0D46E8
:100C20004FF0021708E02946304600F00BF8074461
:100C300006EB104615FA80F5641EF4D23846BDE87E
:100C4000F08100002DE9F8430278A2F180031F2B08
:100C500003D800F01BF9BDE8F88301F8012B0C461E
:100C600010F801CB0025FF21824B834A834F4FF0C0
:100C700001094FF00116BCF1170F76D2DFE80CF036
:100C80000C373E429CA9C4F5E14658F5F5F5F5F55B
:100C90005C616576809699000078631C00210628C7
:100CA00021D006DC05281ED2DFE800F01D1D1D1D29
:100CB0000C00F0280DD0FD2815D0FE2810D0FF28FC
:100CC00011D108E005226E491846FFF70EFC0521F8
:100CD00009E0112005E0402018705D70022102E05B
:100CE000042018700121217001F10210B3E700788F
:100CF000E0B101281AD021701F46B3E02146FFF76A
:100D000041FF1CE0157025704F46ABE0417800783C
:100D10005D4A40EA01215B480068B0FBF2F0032223
:100D2000801CB0FBF2F04843401EFDD12570E3E784
:100D300065702570022795E0214600F0BDFB07464F
:100D400090E0214600F08AFBF9E710F8016B0EB93C
:100D50004FF480760146304603F054FAF61D2570B4
:100D6000F008070407F101177CE07EE0007800F04E
:100D70000301491C1175C0F380005075257019E0FE
:100D800021700122174610F8013B0AE010F8011B00
:100D900011F03F0100D14021C91DC9080A4408448F
:100DA000521C5B1EF2D262F31F475BE00078217099
:100DB000D7E72170374655E0017811728178437882
:100DC00043EA012151810179C37843EA01209081EE
:100DD00047E012782146012A13D00646401C10F83D
:100DE000012B42B110F8013B9C0701D5DB0600D571
:100DF000001D521EF6D1801B0D7000044D70801C2A
:100E00009DE700F015F99AE706461078214601287B
:100E100009D00D704D70A5700320F178890706D5B3
:100E200040F480271EE0304600F084FAF5E7B17800
:100E3000727842EA01214FF4802202EB8147074396
:100E400010E01278012A01D021700BE00679401CD5
:100E5000FFF7ACFB66F31F6000906946002002F0CC
:100E600015FF257007F10110F5E604F8011C304666
:100E7000F1E6000001000200EC83FF1F0100050005
:100E800062BF02000482FF1F40420F002DE9FE4FA7
:100E9000027801F8012B0D4610F8011B4FF00114E8
:100EA000671C803906464FF0000A4FF001084FF0EA
:100EB00002190D2974D2DFE801F0071722384173B7
:100EC000737349566065690007F014F80646FFF72A
:100ED0004AFBC4B22C70681C22463146FFF705FB62
:100EE00004F58034A41C5BE00724684604F068F82D
:100EF000224669462846FFF7F8FA2B4C50E0684630
:100F000004F05EF80422314602A8CDF808A0FFF7ED
:100F1000ECFA02980090684604F072F8002004F0A1
:100F2000EDF885F80080214C3AE03E21681C09F07C
:100F3000B5FD00F580342870A41C31E03778701CB2
:100F4000394609F037FE85F8008025E085F80080F5
:100F5000307828B1012803D085F800A04C461FE066
:100F600007F0B8FAFAE785F8008005F063FF10B9DA
:100F7000022009F07FFB3C4612E0307808F012FDB9
:100F80002870EBE708F0DCFC2870F4E73778701C79
:100F9000394608F093FD287004EB074404F101146E
:100FA0002046BDE8FE8F0000090001000200050098
:100FB0001CB51E490022C1F880220120C1F8A802F8
:100FC000C1F88402C1F88402C1F88802C1F8940211
:100FD000C1F89C00009201928DF800008DF8040089
:100FE0006A46810202F028FD6A460221012002F0D1
:100FF00023FD6A460221012002F01EFD6A460421FB
:10100000012002F019FD6A462021012002F014FDA2
:101010006A468021002002F00FFD01216A46084641
:1010200002F00AFD00F090FB1CBD00000000A7428A
:101030002DE9F04F87B0044605900020DFF8ECA2C0
:10104000CDE901018D1C8AF8000003906678A41C8C
:101050008046002E7ED014F8019B5FEA89717AD514
:10106000B8F1000F31D0B248478909F011000128CA
:101070000CD16946484602F009FE022814D17F1EB1
:1010800003D39AF800100029F3D0FFE069460E2040
:1010900002F0FCFD022805D17F1E03D39AF8001050
:1010A0000029F3D04FF000080128EED1009905F88F
:1010B000011B0099090A05F8011B0099090C05F8A4
:1010C000021B0099090E05F8011C5FEAC9614ED5A3
:1010D000E7782046FFF76AFA67F31F6004909448A8
:1010E000241DB0F80CB05FEAC97011D09048478950
:1010F0000021484602F0CAFD022802D0012806D18C
:1011000006E07F1E03D39AF800100029F0D0BDE05E
:10111000874847896946484602F0B8FD022802D050
:10112000012815D106E07F1E12D39AF8001000297D
:10113000F0D00DE07E49009A09691140049A91426D
:1011400006D0BBF1010B03D39AF800100029DFD0C1
:10115000774901E0BAE046E00969009A1140049A33
:10116000914201D040F01000012817D139E07049B8
:101170004F895FEAC97115D0B8F1000F31D1002154
:10118000484602F083FD022802D001287ED106E005
:101190007F1E7BD39AF800100029F0D076E04FF044
:1011A00001081EE06946484602F070FD022802D0A0
:1011B00001286BD106E07F1E68D39AF80010002941
:1011C000F0D063E0009905F8011B0099090A05F8C1
:1011D000011B0099090C05F8021B0099090E05F87E
:1011E000011C002147E0B8F1000F22D05048478988
:1011F00069460E2002F04AFD022802D0012845D19E
:1012000006E07F1E42D39AF800100029F0D03DE09E
:10121000009805F8010B00984FF00008000A05F847
:10122000010B0098000C05F8020B0098000E05F861
:10123000010CE7782046FFF7B9F967F31F60241D1A
:1012400000905FEA896103D539490861012013E004
:10125000374847896946484602F018FD022802D0FF
:10126000012813D106E07F1E10D39AF80010002940
:10127000F0D00BE0012103910199491C01919AF8EA
:10128000001019B9761E7FF4E6AE09E046B114F8F5
:10129000011B8A0701D5C90600D5241D761EF5E776
:1012A000012834D1B8F1000F21D021485746468992
:1012B00069460E2002F0EAFC022802D0012826D15D
:1012C00005E0761E23D339780029F1D01FE000997C
:1012D00005F8011B0099090A05F8011B0099090C82
:1012E00005F8021B0099090E05F8011C0FE003998F
:1012F00069B10F485746468900210E2002F0C6FC0E
:10130000022804D1761E02D339780029F4D0DDE911
:1013100001121170029948700298291A059807B0B5
:10132000201A41EA0040BDE8F08F0000D880FF1F7E
:10133000EC83FF1F2DE9F84F0025DFF818B10246B6
:1013400028468A46CE1C8BF8005091785378D21CE0
:1013500053EA012473D012F8019B90465FEA897129
:101360005DD55FEAC9713AD03B48478900214846BC
:1013700002F08CFC022802D0012860D12FE07F1EF1
:101380005DD39BF800100029F0D058E024B95FEA43
:10139000C97001D04FF00E092F48D84647896946D9
:1013A000484602F073FC022802D0012847D106E02B
:1013B0007F1E44D398F800100029F0D03FE0009938
:1013C00006F8011B0099090A06F8011B0099090C8F
:1013D00006F8021B0099090E06F8011C6D1C641E1C
:1013E000D4D22CE0404698F80370FFF7DFF867F39B
:1013F0001F600090184808F104084789694648466C
:1014000002F044FC022802D0012818D106E07F1E19
:1014100015D39BF800100029F0D010E06D1C641E5D
:10142000E0D20D485F46448900210E2002F02EFCD8
:10143000022804D1641E02D339780029F4D08AF836
:1014400000502A0A8AF801208AF80200A6EB0A0056
:10145000BDE8F88FD880FF1FEC83FF1F70B50C46E6
:10146000C578FFF7A3F865F31F60104D48B1104928
:101470000023104A0968B0EB910F05D3012050708A
:1014800010E0FF2020700FE000EB5101491EB1FB7E
:10149000F0F05370022804D90321B0FBF1F00A28C0
:1014A00000D20A2050602370284670BD010004005D
:1014B0000482FF1FEC83FF1F2DE9F04110F8015B50
:1014C0000F4610F8014BC678FFF770F866F31F60FF
:1014D0003349E6074FF001034FF0000206D0EE0754
:1014E00002D0C1F8A83201E0C1F8A822A60706D5AB
:1014F000AE0702D5C1F8843201E0C1F88422230688
:1015000005D5EB0943F300035B1CC1F88032B8B387
:10151000244B984200D918464FF0E0239A61224E9E
:10152000DFF888C03668B6FBFCF646435E610520EE
:101530001861E00703D0D1F8A802A8421AD1A00789
:1015400004D5D1F80402B0EB550F13D1600702D5D2
:10155000B2EB950F0ED1A00602D5B2EB551F09D103
:1015600020060CD5D1F8000240F30000401CB0EB7F
:10157000D51F04D01869C0F300400028D9D01A61E3
:10158000D1F8A802D1F80422D1F8001240EA4200B2
:10159000491C40EAC11038700548BDE8F0810000E0
:1015A0000000A742C0C62D000482FF1F40420F006A
:1015B000010006000A4800210A4A017041701268C1
:1015C000094BB2FBF3F2921E426001726422428127
:1015D00081810122016102754175FFF7E9BC0000BC
:1015E000EC83FF1F0482FF1F8096980002490A685F
:1015F00060F300020A6070470C04014005490128AD
:10160000086802D040F0010001E020F0010008600D
:10161000704700000404014003490968014201D0F9
:101620000120704700207047100401400448016801
:10163000012903D143F210210160016070470000CD
:101640000004014005490B68091D0968034A083276
:1016500012680360C0E901127047000050040140A5
:101660002DE9F0410023184F80463F201C4638608A
:10167000154E0C3E3068C0F30045306820F48030D1
:1016800030600120FFF7B2FF042000F021F80F497D
:10169000C8F80010B114381F04E05B1C9BB28B42E9
:1016A00000D909240268D205F7D51020386000203F
:1016B00000F00EF80020FFF799FF306865F3104046
:1016C00030602046BDE8F0811404014078563412A1
:1016D00002490A6860F306120A6070470C04014070
:1016E00002490A6860F307120A6070470804014063
:1016F000034840F22311016043F21021016070475A
:101700000004014070B50546FFF7F2FF0120FFF726
:1017100075FF4FF480742046FFF77EFF0128FAD151
:101720002846FFF79DFFFFF781FF002070BD0000F6
:10173000044901EB8000016840F2FF12114301608F
:10174000704700005C10054070B588B0002400941C
:10175000019402940394049405940121802006943A
:1017600002F014FA0121480402F0F2F900230522E4
:101770002021012002F0C2F907208DF80000012588
:101780008DF801504FF410602F4E8DF80250ADF8D7
:1017900004008DF803406946304602F0AFFEBDF804
:1017A000040005218000B0FBF1F103208DF8140046
:1017B0000220ADF810108DF815008DF818508DF836
:1017C00019408DF812508DF81640ADF81A108DF8AA
:1017D00013508DF8175004AA0621304602F08AFFF4
:1017E00001220621304602F059FF0122082130462D
:1017F00003F036F84FF48870ADF808000420ADF817
:101800000A001248039002A805F038FDBDF90A004D
:1018100002F0AFF8BDF90A000F2102F0D6F8BDF9C9
:101820000A0002F0BCF80621304602F0CFFF084C57
:101830006080304602F0F0FFA0800121304602F0C7
:1018400005FF08B070BD000000640140714902004E
:10185000FC81FF1F1CB51D20ADF8020040F21310E3
:10186000ADF8000009480190684605F007FDBDF994
:10187000020002F07EF8BDF90200012102F0A5F895
:10188000BDF9020002F08BF81CBD0000016A0200E5
:101890007CB5002000900190022084028DF80000A9
:1018A0006A462146002002F0C7F865006A462946CC
:1018B000002002F0C1F800230A222146184602F057
:1018C0001DF900230A222946184602F017F90023C1
:1018D0000A22A110184602F011F90121080202F0B3
:1018E00049F97CBDEFF308840EF00F000D2801D1FB
:1018F000EFF30984A08B04F12005800500D52D1D90
:101900005FEACE6000D44835704605F0FDFAEFF38B
:10191000098005F0F9FAEFF3088005F0F5FAEFF326
:10192000148005F0F1FA284605F0EEFA606905F03A
:10193000EBFAA06905F0E8FAE06905F0E5FA12486B
:10194000006805F0E1FA1048001F006805F0DCFAB5
:101950000D48001D006805F0D7FA0B4810300068EC
:1019600005F0D2FA08480830006805F0CDFA0648BC
:101970000C30006805F0C8FA4A2204A1002005F0E6
:10198000D3F802F0ABFDFEE72CED00E02E2E5C2E2E
:101990002E5C2E2E5C736F757263655C6461706C77
:1019A000696E6B5C486172644661756C745F486116
:1019B0006E646C65722E630002480068002800D0D7
:1019C0000047704714BEFF1F02484068002800D03F
:1019D0000047704714BEFF1F02488068002800D0EF
:1019E0000047704714BEFF1F0248C068002800D09F
:1019F0000047704714BEFF1F02480069002800D04E
:101A00000047704714BEFF1F02484069002800D0FD
:101A10000047704714BEFF1F02488069002800D0AD
:101A20000047704714BEFF1F0248C069002800D05D
:101A30000047704714BEFF1F0248006A002800D00C
:101A40000047704714BEFF1F0248406A002800D0BC
:101A50000047704714BEFF1F0248806A002800D06C
:101A60000047704714BEFF1F0248C06A002800D01C
:101A70000047704714BEFF1F0248006B002800D0CB
:101A80000047704714BEFF1F0248406B002800D07B
:101A90000047704714BEFF1F0248806B002800D02B
:101AA0000047704714BEFF1F0248C06B002800D0DB
:101AB0000047704714BEFF1F0248006C002800D08A
:101AC0000047704714BEFF1F0248406C002800D03A
:101AD0000047704714BEFF1F0248806C002800D0EA
:101AE0000047704714BEFF1F0248C06C002800D09A
:101AF0000047704714BEFF1F0248006D002800D049
:101B00000047704714BEFF1F0248406D002800D0F8
:101B10000047704714BEFF1F0248806D002800D0A8
:101B20000047704714BEFF1F0248C06D002800D058
:101B30000047704714BEFF1F0248006E002800D007
:101B40000047704714BEFF1F0248406E002800D0B7
:101B50000047704714BEFF1F0248806E002800D067
:101B60000047704714BEFF1F0248C06E002800D017
:101B70000047704714BEFF1F0248006F002800D0C6
:101B80000047704714BEFF1F0248406F002800D076
:101B90000047704714BEFF1F0248806F002800D026
:101BA0000047704714BEFF1F0248C06F002800D0D6
:101BB0000047704714BEFF1F0348D0F8800000287C
:101BC00000D000477047000014BEFF1F0348D0F844
:101BD0008400002800D000477047000014BEFF1F9B
:101BE0000348D0F88800002800D000477047000064
:101BF00014BEFF1F0348D0F88C00002800D0004717
:101C00007047000014BEFF1F0348D0F89000002862
:101C100000D000477047000014BEFF1F0348D0F8F3
:101C20009400002800D000477047000014BEFF1F3A
:101C30000348D0F89800002800D000477047000003
:101C400014BEFF1F0348D0F89C00002800D00047B6
:101C50007047000014BEFF1F0348D0F8A000002802
:101C600000D000477047000014BEFF1F0348D0F8A3
:101C7000A400002800D000477047000014BEFF1FDA
:101C80000348D0F8A800002800D0004770470000A3
:101C900014BEFF1F0348D0F8AC00002800D0004756
:101CA0007047000014BEFF1F0348D0F8B0000028A2
:101CB00000D000477047000014BEFF1F0348D0F853
:101CC000B400002800D000477047000014BEFF1F7A
:101CD0000348D0F8B800002800D000477047000043
:101CE00014BEFF1F0348D0F8BC00002800D00047F6
:101CF0007047000014BEFF1F0348D0F8C000002842
:101D000000D000477047000014BEFF1F0348D0F802
:101D1000C400002800D000477047000014BEFF1F19
:101D20000348D0F8C800002800D0004770470000E2
:101D300014BEFF1F0348D0F8CC00002800D0004795
:101D40007047000014BEFF1F0348D0F8D0000028E1
:101D500000D000477047000014BEFF1F0348D0F8B2
:101D6000D400002800D000477047000014BEFF1FB9
:101D70000348D0F8D800002800D000477047000082
:101D800014BEFF1F0348D0F8DC00002800D0004735
:101D90007047000014BEFF1F0348D0F8E000002881
:101DA00000D000477047000014BEFF1F0348D0F862
:101DB000E400002800D000477047000014BEFF1F59
:101DC0000348D0F8E800002800D000477047000022
:101DD00014BEFF1F0348D0F8EC00002800D00047D5
:101DE0007047000014BEFF1F0348D0F8F000002821
:101DF00000D000477047000014BEFF1F0348D0F812
:101E0000F400002800D000477047000014BEFF1FF8
:101E10000348D0F8F800002800D0004770470000C1
:101E200014BEFF1F0348D0F8FC00002800D0004774
:101E30007047000014BEFF1F0348D0F800010028BF
:101E400000D000477047000014BEFF1F0348D0F8C1
:101E50000401002800D000477047000014BEFF1F97
:101E60000348D0F80801002800D000477047000060
:101E700014BEFF1F0348D0F80C01002800D0004713
:101E80007047000014BEFF1F0348D0F8100100285F
:101E900000D000477047000014BEFF1F0348D0F871
:101EA0001401002800D000477047000014BEFF1F37
:101EB0000348D0F81801002800D000477047000000
:101EC00014BEFF1F0348D0F81C01002800D00047B3
:101ED0007047000014BEFF1F0348D0F820010028FF
:101EE00000D000477047000014BEFF1F0348D0F821
:101EF0002401002800D000477047000014BEFF1FD7
:101F00000348D0F82801002800D00047704700009F
:101F100014BEFF1F0348D0F82C01002800D0004752
:101F20007047000014BEFF1F0348D0F8300100289E
:101F300000D000477047000014BEFF1F0348D0F8D0
:101F40003401002800D000477047000014BEFF1F76
:101F50000348D0F83801002800D00047704700003F
:101F600014BEFF1F0348D0F83C01002800D00047F2
:101F70007047000014BEFF1F0348D0F8400100283E
:101F800000D000477047000014BEFF1F0348D0F880
:101F90004401002800D000477047000014BEFF1F16
:101FA0000348D0F84801002800D0004770470000DF
:101FB00014BEFF1F0348D0F84C01002800D0004792
:101FC0007047000014BEFF1F0348D0F850010028DE
:101FD00000D000477047000014BEFF1F0348D0F830
:101FE0005401002800D000477047000014BEFF1FB6
:101FF0000348D0F85801002800D00047704700007F
:1020000014BEFF1F0348D0F85C01002800D0004731
:102010007047000014BEFF1F0348D0F8600100287D
:1020200000D000477047000014BEFF1F0348D0F8DF
:102030006401002800D000477047000014BEFF1F55
:102040000348D0F86801002800D00047704700001E
:1020500014BEFF1F0348D0F86C01002800D00047D1
:102060007047000014BEFF1F0348D0F8700100281D
:1020700000D000477047000014BEFF1F0348D0F88F
:102080007401002800D000477047000014BEFF1FF5
:102090000348D0F87801002800D0004770470000BE
:1020A00014BEFF1F0348D0F87C01002800D0004771
:1020B0007047000014BEFF1F0348D0F880010028BD
:1020C00000D000477047000014BEFF1F0348D0F83F
:1020D0008401002800D000477047000014BEFF1F95
:1020E0000348D0F88801002800D00047704700005E
:1020F00014BEFF1F0348D0F88C01002800D0004711
:102100007047000014BEFF1F0348D0F8900100285C
:1021100000D000477047000014BEFF1F0348D0F8EE
:102120009401002800D000477047000014BEFF1F34
:102130000348D0F89801002800D0004770470000FD
:1021400014BEFF1F0348D0F89C01002800D00047B0
:102150007047000014BEFF1F0348D0F8A0010028FC
:1021600000D000477047000014BEFF1F0348D0F89E
:10217000A401002800D000477047000014BEFF1FD4
:102180000348D0F8A801002800D00047704700009D
:1021900014BEFF1F0348D0F8AC01002800D0004750
:1021A0007047000014BEFF1F0348D0F8B00100289C
:1021B00000D000477047000014BEFF1F0348D0F84E
:1021C000B401002800D000477047000014BEFF1F74
:1021D0000348D0F8B801002800D00047704700003D
:1021E00014BEFF1F0348D0F8BC01002800D00047F0
:1021F0007047000014BEFF1F0348D0F8C00100283C
:1022000000D000477047000014BEFF1F0348D0F8FD
:10221000C401002800D000477047000014BEFF1F13
:102220000348D0F8C801002800D0004770470000DC
:1022300014BEFF1F0348D0F8CC01002800D000478F
:102240007047000014BEFF1F0348D0F8D0010028DB
:1022500000D000477047000014BEFF1F0348D0F8AD
:10226000D401002800D000477047000014BEFF1FB3
:102270000348D0F8D801002800D00047704700007C
:1022800014BEFF1F0348D0F8DC01002800D000472F
:102290007047000014BEFF1F0348D0F8E00100287B
:1022A00000D000477047000014BEFF1F0348D0F85D
:1022B000E401002800D000477047000014BEFF1F53
:1022C0000348D0F8E801002800D00047704700001C
:1022D00014BEFF1F0348D0F8EC01002800D00047CF
:1022E0007047000014BEFF1F0348D0F8F00100281B
:1022F00000D000477047000014BEFF1F0348D0F80D
:10230000F401002800D000477047000014BEFF1FF2
:102310000348D0F8F801002800D0004770470000BB
:1023200014BEFF1F0348D0F8FC01002800D000476E
:102330007047000014BEFF1F494810B5D0F85C423A
:1023400048480068012803D1E00701D0AFF30080BE
:102350004448001D0068012803D1A00701D5AFF350
:102360000080404808300068012803D1600701D58B
:10237000AFF300803B480C300068012803D12007F0
:1023800001D5AFF30080374810300068012803D131
:10239000E00601D5AFF30080324814300068012810
:1023A00003D1A00601D5AFF300802E481830006895
:1023B000012803D1600601D5AFF3008029481C3005
:1023C0000068012803D1200601D5AFF3008025481D
:1023D00020300068012803D1E00501D5AFF300806B
:1023E000204824300068012803D1A00501D5AFF3AF
:1023F00000801C4828300068012803D1600501D501
:10240000AFF3008017482C300068012803D1200565
:1024100001D5AFF30080134830300068012803D1A4
:10242000E00401D5AFF300800E4834300068012885
:1024300003D1A00401D5AFF300800A48383000680A
:10244000012803D1600401D5AFF3008005483C307A
:102450000068012803D1200401D5AFF3008010BD2E
:1024600000100540800AA2422DE9F05FD448D0F860
:102470006042D4480068D44ED44D012822D1D5F80A
:10248000000238B9D5F80001012803D1E00701D0D6
:10249000AFF30080D5F8400238B9D5F840010128E3
:1024A00003D1E00501D5AFF300807068F26800F059
:1024B00001114FF001109043014203D0E00301D518
:1024C000AFF30080C248D0F8B0034FF0021A0128E1
:1024D00021D1D5F8040238B9D5F80401012803D177
:1024E000A00701D5AFF30080D5F8440238B9D5F87C
:1024F0004401012803D1A00501D5AFF30080706825
:10250000F26800F002112AEA0200014203D0E0035F
:1025100001D5AFF30080AF4800684FF0041B0128DD
:1025200021D1D5F8080238B9D5F80801012803D11E
:10253000600701D5AFF30080D5F8480238B9D5F867
:102540004801012803D1600501D5AFF30080706810
:10255000F26800F004112BEA0200014203D0E0030C
:1025600001D5AFF300809C48D0F8B0034FF00819B4
:10257000012821D1D5F80C0238B9D5F80C01012871
:1025800003D1200701D5AFF30080D5F84C0238B94C
:10259000D5F84C01012803D1200501D5AFF3008007
:1025A0007068F26800F0081129EA0200014203D0C5
:1025B000E00301D5AFF3008088480068DFF820828F
:1025C000874F884E08F10808012823D1D6F8000269
:1025D00038B9D6F80001012803D1E00601D5AFF3E0
:1025E0000080D6F8400238B9D6F84001012803D15E
:1025F000E00401D5AFF300803868D8F8002000F07F
:1026000001114FF001109043014203D0A00301D506
:10261000AFF300807448D0F8B003012822D1D6F877
:10262000040238B9D6F80401012803D1A00601D567
:10263000AFF30080D6F8440238B9D5F84401012838
:1026400003D1A00401D5AFF300803868D8F800208A
:1026500000F002112AEA0200014203D0A00301D5D2
:10266000AFF3008061480068012822D1D6F8080243
:1026700038B9D6F80801012803D1600601D5AFF3B7
:102680000080D6F8480238B9D5F84801012803D1AE
:10269000600401D5AFF300803868D8F8002000F05E
:1026A00004112BEA0200014203D0A00301D5AFF3CD
:1026B00000804F48D0F8B003012822D1D6F80C0290
:1026C00038B9D6F80C01012803D1200601D5AFF3A3
:1026D0000080D6F84C0238B9D5F84C01012803D156
:1026E000200401D5AFF300803868D8F8002000F04E
:1026F000081129EA0200014203D0A00301D5AFF37B
:1027000000803C4DD5F80003012807D13A48006805
:10271000000703D0600301D5AFF30080D5F80803AC
:10272000012807D1D5F81402012803D1200301D5CF
:10273000AFF30080D5F80403012807D1D5F81002C3
:10274000012803D1E00201D5AFF300804FF01C4017
:10275000C068000603D5600201D5AFF300802749A9
:10276000886949680840400603D0200201D5AFF3CC
:10277000008023480068224914390968084040064F
:1027800003D0E00101D5AFF300801E4800681D4969
:10279000143909680840400603D0A00101D5AFF301
:1027A0000080194800681849143909680840400633
:1027B00003D0600101D5AFF30080BDE8F09F0000B9
:1027C00000100540B00BA642003005400000A642B4
:1027D0000010A642B01BA6420020A642B08BA64223
:1027E000043405400080A6420090A642B09BA64259
:1027F00000A0A642008020421004014000200540B5
:102800001824054018280540182C054070B52A48A2
:10281000D0F86442294DD5F80802012807D1D5F82F
:102820008002012803D1E00701D0AFF30080D5F882
:102830004802012807D1D5F8C002012803D1A0071A
:1028400001D5AFF300801E4DD5F80802012807D14D
:10285000D5F88002012803D1600701D5AFF30080CD
:10286000D5F84802012807D1D5F8C002012803D1C4
:10287000200701D5AFF3008012480068012808D175
:10288000104820300068012803D1A00201D5AFF321
:1028900000800D48006B012803D1600201D5AFF321
:1028A00000800A48006810F4403F03D0200201D5A0
:1028B000AFF3008070BD00000010054000004842EA
:1028C000008048420008A8420080984204940440D6
:1028D0002DE9F0419A48D0F868429A4800680128EA
:1028E00007D199480068012803D1E00701D0AFF370
:1028F00000809448001D0068012808D19248001DFE
:102900000068012803D1A00701D5AFF300808D48EE
:1029100008300068012808D18B4808300068012879
:1029200003D1600701D5AFF3008086480C30006802
:10293000012808D184480C300068012803D1200701
:1029400001D5AFF300807F4810300068012808D11E
:102950007D4810300068012803D1E00601D5AFF3AF
:102960000080784814300068012808D17648143077
:102970000068012803D1A00601D5AFF3008071489B
:1029800018300068012808D16F4818300068012805
:1029900003D1600601D5AFF300806A481C3000689F
:1029A000012808D168481C300068012803D120069E
:1029B00001D5AFF30080634820300068012808D1BA
:1029C000614820300068012803D1E00501D5AFF34C
:1029D00000805E4E706D4FF4C067316F07EAD01013
:1029E00001F4C061084203D0200501D5AFF3008097
:1029F000706D4FF4C055316F05EAD01001F4C0512D
:102A0000084203D0E00401D5AFF3008050480068CD
:102A1000012807D14F480068012803D1E00301D500
:102A2000AFF300804A48001D0068012808D14948DA
:102A3000001D0068012803D1A00301D5AFF3008079
:102A4000434808300068012808D14248083000682F
:102A5000012803D1600301D5AFF300803C480C305E
:102A60000068012808D13B480C300068012803D1D8
:102A7000200301D5AFF300803548103000680128ED
:102A800008D1344810300068012803D1E00201D594
:102A9000AFF300802E4814300068012808D12D487B
:102AA00014300068012803D1A00201D5AFF30080E3
:102AB000274818300068012808D1264818300068D7
:102AC000012803D1600201D5AFF3008020481C30FB
:102AD0000068012808D11F481C300068012803D174
:102AE000200201D5AFF3008019482030006801288A
:102AF00008D1184820300068012803D1E00101D531
:102B0000AFF30080144E306807EAD010124F1C3724
:102B1000396801F4C061084203D0200101D5AFF348
:102B200000803068396805EAD01001F4C0510842CD
:102B300003D0E00001D5AFF30080BDE8F0810000D4
:102B400000100540800A3042000E304200800140F3
:102B5000808A3042008E30425484014070B54F4824
:102B6000D0F86C424E480068012807D14D480068F3
:102B7000012803D1E00701D0AFF300804848001DD1
:102B80000068012808D14748001D0068012803D1CA
:102B9000A00701D5AFF30080414808300068012844
:102BA00008D1404808300068012803D1600701D5EA
:102BB000AFF300803A480C300068012808D139484A
:102BC0000C300068012803D1200701D5AFF3008045
:102BD000334810300068012808D1324810300068AE
:102BE000012803D1E00601D5AFF300802C48143052
:102BF0000068012808D12B4814300068012803D14F
:102C0000A00601D5AFF300802548183000680128E0
:102C100008D1244818300068012803D1600601D586
:102C2000AFF300801E481C300068012808D11D4801
:102C30001C300068012803D1200601D5AFF30080C5
:102C4000174820300068012808D116482030006855
:102C5000012803D1E00501D5AFF30080124E3068A2
:102C6000114D4FF4C0611C3501EAD010296801F400
:102C7000C061084203D0200501D5AFF30080306861
:102C80004FF4C05101EAD010296801F4C051084244
:102C900003D0E00401D5AFF3008070BD0010054003
:102CA000800A3142000E3142548801402DE9F04142
:102CB0009248D0F87C42924ED6F88050E80405D570
:102CC000680403D5E00701D0AFF30080A80405D560
:102CD000280403D5A00701D5AFF3008056F8900F64
:102CE000F168084010F0FF0F03D0600701D5AFF383
:102CF000008084480568E80405D5680403D52007EA
:102D000001D5AFF30080A80405D5280403D5E0065B
:102D100001D5AFF300807B481030006879491C3141
:102D20000968084010F0FF0F03D0A00601D5AFF3EB
:102D3000008075480568E80405D5680403D5600679
:102D400001D5AFF30080A80405D5280403D52006DB
:102D500001D5AFF300806C48103000686A491C311F
:102D60000968084010F0FF0F03D0E00501D5AFF36C
:102D7000008066480568E80405D5680403D5A00509
:102D800001D5AFF30080A80405D5280403D560055C
:102D900001D5AFF300805D48103000685B491C31FD
:102DA0000968084010F0FF0F03D0200501D5AFF3EC
:102DB0000080574ED6F88050E80405D5680403D546
:102DC000E00401D5AFF30080A80405D5280403D59D
:102DD000A00401D5AFF3008056F8900FF1680840C9
:102DE00010F0FF0F03D0600401D5AFF30080494815
:102DF0000568E80405D5680403D5E00301D5AFF301
:102E00000080A80405D5280403D5A00301D5AFF39D
:102E100000804048103000683E491C310968084075
:102E200010F0FF0F03D0600301D5AFF300804FF027
:102E30008740D0F8000101280BD137498869374A0B
:102E4000496910401140084203D0200301D5AFF377
:102E5000008033480668C568A80606D516F00B0F33
:102E600003D0600201D5AFF3008005EA0607B8067B
:102E700003D5200201D5AFF30080380603D5E00169
:102E800001D5AFF30080780603D5A00101D5AFF3DB
:102E90000080A80705D5F00503D5600101D5AFF383
:102EA0000080204806681F480C300568A80606D533
:102EB00016F00B0F03D0200101D5AFF3008005EA17
:102EC0000607B80603D5E00001D5AFF30080380649
:102ED00003D5A00001D5AFF30080780603D56000CC
:102EE00001D5AFF30080A80705D5F00503D5002C68
:102EF00001DAAFF30080BDE8F0810000001005406A
:102F0000005001408054014080580140805C0140E5
:102F1000006001408064014000000C40FBFC7CF735
:102F200000D0014000D401402DE9F0417548D0F8AF
:102F3000804275480668C568A80606D516F00B0FCE
:102F400003D0E00701D0AFF3008005EA0607B8061A
:102F500003D5A00701D5AFF30080380603D560077D
:102F600001D5AFF30080780603D5200701D5AFF374
:102F70000080A80705D5F00503D5E00601D5AFF31D
:102F800000806248066861480C300568A80606D5CE
:102F900016F00B0F03D0A00601D5AFF3008005EAB1
:102FA0000607B80603D5600601D5AFF300803806E2
:102FB00003D5200601D5AFF30080780603D5E005E0
:102FC00001D5AFF30080A80705D5F00503D5A0050E
:102FD00001D5AFF300804E4845684669680505D5C0
:102FE000300603D5200501D5AFF30080A80505D52F
:102FF000B00603D5E00401D5AFF30080280505D560
:10300000F00703D1A00401D5AFF30080E80506D591
:1030100016F01D0F03D0600401D5AFF300803D48CA
:1030200005683C4810300668680505D5300603D5AC
:10303000E00301D5AFF30080A80505D5B00603D5A0
:10304000A00301D5AFF30080280505D5F00703D113
:10305000600301D5AFF30080E80506D516F01D0F1B
:1030600003D0200301D5AFF300802B4845684669A3
:10307000680505D5300603D5A00201D5AFF3008061
:10308000A80505D5B00603D5600201D5AFF30080D1
:10309000280505D5F00703D1200201D5AFF3008044
:1030A000E80506D516F01D0F03D0E00101D5AFF3FA
:1030B00000801A480568194810300668680505D56B
:1030C000300603D5600101D5AFF30080A80505D512
:1030D000B00603D5200101D5AFF30080280505D542
:1030E000F00703D1E00001D5AFF30080E80506D575
:1030F00016F01D0F03D0A00001D5AFF30080BDE88E
:10310000F081000000100540001002400014024051
:1031100000C0014004C40140000002400404024019
:1031200070B56548D0F88442644E358BE00705D011
:10313000E80603D5680601D5AFF30080A00705D5E2
:10314000A80603D5280601D5AFF30080B58B60072C
:1031500005D5E80603D5680601D5AFF30080200742
:1031600005D5A80603D5280601D5AFF30080358C18
:10317000E00605D5E80603D5680601D5AFF3008063
:10318000A00605D5A80603D5280601D5AFF3008013
:10319000B6F84850600605D5E80503D5A80501D561
:1031A000AFF30080200605D5A80403D5680401D537
:1031B000AFF30080B6F8A450E00505D5E80703D0CA
:1031C000E80601D5AFF30080A00505D5A80703D513
:1031D000E80501D5AFF30080600505D5680703D584
:1031E000E80401D5AFF3008035480588E00305D534
:1031F000E80603D5680601D5AFF30080A00305D526
:10320000A80603D5280601D5AFF300802C48001D81
:103210000588600305D5E80603D5680601D5AFF338
:103220000080200305D5A80603D5280601D5AFF3F5
:103230000080234808300588E00205D5E80603D55C
:10324000680601D5AFF30080A00205D5A80603D516
:10325000280601D5AFF30080194830300588600298
:1032600005D5E80503D5A80501D5AFF300802002F8
:1032700005D5A80403D5680401D5AFF30080104834
:103280008C300588E00105D5E80703D0E80601D5B4
:10329000AFF30080A00105D5A80703D5E80501D547
:1032A000AFF30080600105D5680703D5E80401D5B8
:1032B000AFF3008070BD00000010054000700140B9
:1032C0001848024070B53548D0F88842344805881F
:1032D000E00705D0E80603D5680601D5AFF3008006
:1032E000A00705D5A80603D5280601D5AFF30080B1
:1032F0002B48001D0588600705D5E80603D568063C
:1033000001D5AFF30080200705D5A80603D5280610
:1033100001D5AFF30080224808300588E00605D5C6
:10332000E80603D5680601D5AFF30080A00605D5F1
:10333000A80603D5280601D5AFF300801848303021
:103340000588600605D5E80503D5A80501D5AFF3C6
:103350000080200605D5A80403D5680401D5AFF385
:1033600000800F488C300588E00505D5E80703D0BC
:10337000E80601D5AFF30080A00505D5A80703D561
:10338000E80501D5AFF30080600505D5680703D5D2
:10339000E80401D5AFF3008070BD000000100540C7
:1033A000184C024070B56548D0F88C4264480068FB
:1033B000634900F00F000831096801F00F0108426D
:1033C00003D0600601D5AFF300805D48203000686F
:1033D0005B4900F00F002831096801F00F01084235
:1033E00003D0200601D5AFF3008055484030006877
:1033F000534900F00F004831096801F00F010842FD
:1034000003D0E00501D5AFF300804D48603000687F
:103410004B4900F00F006831096801F00F010842C4
:1034200003D0A00501D5AFF30080464D68680128A0
:1034300007D1D5F88000012803D1E00301D5AFF30F
:103440000080E868012807D1D5F88400012803D15D
:10345000A00301D5AFF300802869012807D13A48BD
:103460008068800703D0600301D5AFF30080374D3B
:103470006868012807D1D5F88000012803D120030E
:1034800001D5AFF30080E868012807D1D5F88400A2
:10349000012803D1E00201D5AFF30080286901289B
:1034A00007D12B480068800703D0A00201D5AFF3F5
:1034B0000080284D6868012807D1D5F880000128D0
:1034C00003D1600201D5AFF30080E868012807D17D
:1034D000D5F88400012803D1200201D5AFF3008084
:1034E0002869012807D11C488068800703D0E001C3
:1034F00001D5AFF30080194D6868012807D1D5F8D0
:103500008000012803D1A00101D5AFF30080E86855
:10351000012807D1D5F88400012803D1600101D525
:10352000AFF300802869012807D10D4800688007A3
:1035300003D0200101D5AFF3008070BD001005401D
:103540000C7C014000003C4200E0014000803C4215
:1035500008E4014000004442002002400080444250
:103560000824024070B57048D0F890426F4DD5F8ED
:103570009800012807D1D5F89803012803D1E00667
:1035800001D5AFF30080D5F88C00012807D1D5F81C
:103590008C03012803D1A00601D5AFF30080D5F834
:1035A0009C00012807D1D5F89C03012803D16006AF
:1035B00001D5AFF300805E4948685E4EC96930406E
:1035C0003140084203D0200601D5AFF300805A4DA8
:1035D000D5F89800012807D1D5F89803012803D120
:1035E000E00501D5AFF30080D5F88C00012807D1A4
:1035F000D5F88C03012803D1A00501D5AFF30080D5
:10360000D5F89C00012807D1D5F89C03012803D1E7
:10361000600501D5AFF30080484800684749304055
:10362000183109683140084203D0200501D5AFF3B5
:103630000080434DD5F89800012807D1D5F89803AC
:10364000012803D1E00401D5AFF30080D5F88C0048
:10365000012807D1D5F88C03012803D1A00401D596
:10366000AFF30080D5F89C00012807D1D5F89C0362
:10367000012803D1600401D5AFF300803148006810
:1036800030493040183109683140084203D02004E5
:1036900001D5AFF300802C4DD5F86002012807D189
:1036A0002A480068012803D1A00301D5AFF30080A8
:1036B000D5F87002012808D124481030006801288C
:1036C00003D1600301D5AFF30080214DD5F800038D
:1036D000012807D1D5F88003012803D1E00201D5E4
:1036E000AFF30080D5F80403012807D1D5F884038F
:1036F000012803D1A00201D5AFF30080D5F808035B
:10370000012807D1D5F88803012803D1600201D52B
:10371000AFF300800F48406810F4403F03D0200210
:1037200001D5AFF3008070BD0010054000009C4241
:1037300000E004401752F00000809C4204E4044082
:1037400000009D4204E804400080A842241CA842D6
:1037500000809042009004402DE9F0413548D0F8B7
:10376000944235480068012808D133482038006861
:10377000012803D1E00701D0AFF300802E48001DDF
:103780000068012808D12C481C380068012803D1A2
:10379000A00701D5AFF300802848B0F8B050284FFB
:1037A0003868284E012807D13068012800D01DB1A3
:1037B000600701D5AFF300803868012807D1306871
:1037C000012800D01DB1200701D5AFF300801E48AD
:1037D0000068012808D11C4820380068012803D15E
:1037E000E00601D5AFF300801748001D00680128EE
:1037F00008D115481C380068012803D1A00601D55E
:10380000AFF30080114E3068114D012806D1288891
:10381000C00503D0600601D5AFF3008030680128F1
:1038200006D12888C00503D0200601D5AFF300805B
:10383000BDE8F08100100540E0088042000004402F
:103840002014804240168042E088804220948042CA
:10385000B004044070B52D4CD4F8080340F2F715BD
:1038600040F27F16012812D12948018828480830E3
:103870000088274A921C1288254B0A331B88014076
:10388000294202D11A40324201D0AFF30080D4F86D
:10389000140301280CD11F48018E038F428E408FE4
:1038A0001940294202D10240324201D0AFF30080D8
:1038B000D4F81803012827D117480278401E03784E
:1038C000801C007814491A31097802F0010501F0D2
:1038D00020042C4316D11A40520813D1C20701D03C
:1038E00082070FD4420701D502070BD4C20601D5C7
:1038F000800607D4080701D5C80603D4480603D5B7
:10390000080601D5AFF3008070BD00000050A24250
:1039100030FC064000000740A50407400020704727
:103920001CB506F017FB00281CD09E208DF8000067
:10393000E7208DF801006946102000F063FC0124A7
:1039400006F008FB00280DD000208DF80000694625
:10395000082000F057FC01A9002006F08FFA01288A
:1039600001D104B11CBD00201CBD10B5AFF3008017
:1039700010BD00F01F02012191404009800000F1BC
:10398000E020C0F88012704700F01F020121914032
:103990004009800000F1E020C0F88012704700F07C
:1039A0001F02012191404009800000F1E020C0F891
:1039B0000011704700F01F02012191404009800072
:1039C00000F1E020C0F8001170470907090E002837
:1039D00006DA00F00F0000F1E02080F8141D7047B7
:1039E00000F1E02080F8001470470907090E002854
:1039F00006DA00F00F0000F1E02080F8141D704797
:103A000000F1E02080F8001470470000094B4AF2F2
:103A100001521A80074A00F01F00083A0129118854
:103A200006D0814311804FF4254018800020704754
:103A30000143F7E7FC3B0540F0B5DFF8BCE04AF294
:103A400001530024AEF800304FF0010C0CFA04F3DF
:103A50000B4242D0830103EB8405274B264E1B1DEE
:103A60002B44B61D354457781E8867F38E361E806A
:103A700097781E8867F30C361E80D7781E8867F308
:103A800049261E8017791E8867F386161E8097794F
:103A90001E8867F382061E8057791E8867F3051615
:103AA0001E80167826B1012E0AD0022E10D11EE0FB
:103AB0001E8826F400461E801E8826F0020606E0B8
:103AC0001E8826F400461E801E8846F002061E80D0
:103AD000D6792B8866F308232B80641CE4B2102C63
:103AE000B4D34FF42540AEF800000020F0BD1E888E
:103AF00046F40046EBE70000FC3B0540F0B5134FF1
:103B00004AF2015500243D804FF0010E860107F175
:103B1000060C0EFA04F008420CD006EB8400604458
:103B2000058862F3050505800588012B0BD025F477
:103B300080750580641CE4B2102CEAD34FF4254054
:103B400038800020F0BD45F48075F2E7FC3B05406D
:103B5000074A064B13610129116805D00143116022
:103B60000248401E106170478143F8E70100A5A597
:103B700000800440044A0129516802D00143516089
:103B800070478143FBE7000000800440044A01299C
:103B9000916802D00143916070478143FBE70000C8
:103BA000008004402DE9F0410746002415460E46EA
:103BB00080072AD00020C62217A102F0B5FFB00767
:103BC00025D00020C72214A102F0AEFFA80720D004
:103BD0000020C82210A102F0A7FFFDF789FD0120F7
:103BE000FDF70CFD4FF480784046FDF715FD0128E8
:103BF000FAD12A4631463846FCF74AFD00B1012485
:103C0000FDF714FD2046BDE8F0810120D3E7012037
:103C1000D8E70120DDE700002E2E5C2E2E5C2E2E34
:103C20005C736F757263655C6869635F68616C5C27
:103C3000686473635C68633332663436305C666C28
:103C40006173682E630000000F494AF2025200209F
:103C5000A1F8FE234FF48053B1F8C02042F4004293
:103C6000A1F8C020B1F8C020401C984201D0002A21
:103C7000F2D14FF42542A1F8FE23984201D3092046
:103C8000704700207047000000400540034A52780A
:103C90000AB100F005B800F005B90000EC83FF1F81
:103CA000F0B57E4E0127C6F884724FF0000CC6F8BE
:103CB000A8C2C6F8A87200F00102C6F88422C6F8AD
:103CC000A8C2C6F8A872420802F00103C6F88432FE
:103CD000C6F8A8C2C6F8A8728318820802F00104C8
:103CE000C6F88442C6F8A8C2C6F8A8729C18C208D2
:103CF00002F00103C6F88432C6F8A8C2C6F8A8725A
:103D0000224402F00102C6F88422C6F8A8C2C6F80E
:103D1000A872C6F884C2C6F8A8C2C6F8A872C6F8C7
:103D20008472C6F8A8C2C6F8A872C6F888C2C6F8D7
:103D3000C4C2DFF86CE19EF81420131E05D0C6F84B
:103D4000A8C2C6F8A872521EF9D1C6F8A8C2D6F801
:103D50000422C6F8A872C6F8A8C2D6F80442C6F86B
:103D6000A87242EA4402C6F8A8C2D6F80442C6F8CD
:103D7000A87242EA8402012A10D0022A67D0042ADB
:103D800065D0213305D0C6F8A8C2C6F8A8725B1E5C
:103D9000F9D1C6F88872C6F8C4727BE0800728D5CE
:103DA00000252B462020C6F8A8C2D6F80442C6F843
:103DB000A8726D08234445EAC475401EF3D1C6F8C5
:103DC000A8C2D6F80402C6F8A8724340D80700D0AB
:103DD000082201B10D609EF8140028B1C6F8A8C2EF
:103DE000C6F8A872401EF9D1C6F88872C6F8C47227
:103DF00021E02BB1C6F8A8C2C6F8A8725B1EF8E78E
:103E0000C6F88872C6F8C47200230868202100F042
:103E10000104C6F88442C6F8A8C2C6F8A8720344D2
:103E20004008491EF3D103F00100C6F88402C6F829
:103E3000A8C2C6F8A8729EF8080058B3C6F884C293
:103E4000C6F8A8C2C6F8A872401EF9D122E09EF8B2
:103E5000154044B1810706D52121C6F8A8C2C6F88D
:103E6000A872491EF9D12BB1C6F8A8C2C6F8A8722B
:103E70005B1EF8E7C6F88872C6F8C47254B18007B2
:103E800008D4C6F884C22120C6F8A8C2C6F8A87211
:103E9000401EF9D1C6F88472D0B2F0BD0000A7422E
:103EA000EC83FF1F2DE9F047D44E002401258946FD
:103EB000C6F884522746C6F8A842D14B59680A462C
:103EC000521EFDD1C6F8A8520A46521EFDD100F07E
:103ED0000102C6F88422C6F8A8720A46521EFDD115
:103EE000C6F8A8520A46521EFDD104EB000C440845
:103EF00004F00102C6F88422C6F8A8720A46521ECF
:103F0000FDD1C6F8A8520A46521EFDD1A444840829
:103F100004F00102C6F88422C6F8A8720A46521EAE
:103F2000FDD1C6F8A8520A46521EFDD1A444C408C9
:103F300004F00102C6F88422C6F8A8720A46521E8E
:103F4000FDD1C6F8A8520A46521EFDD10CEB040260
:103F500002F00102C6F88422C6F8A8720A46521E70
:103F6000FDD1C6F8A8520A46521EFDD1C6F8847289
:103F7000C6F8A8720A46521EFDD1C6F8A8520A46D3
:103F8000521EFDD1C6F88452C6F8A8720A46521EC7
:103F9000FDD1C6F8A8520A46521EFDD1C6F8887255
:103FA000C6F8C4721C7DB4F1000C0BD0C6F8A87220
:103FB0000A46521EFDD1C6F8A8520A46521EFDD12D
:103FC000641EF3D1C6F8A8720A46521EFDD1D6F877
:103FD0000422C6F8A8520C46641EFDD1C6F8A87289
:103FE0000C46641EFDD1D6F80442C6F8A852884695
:103FF000B8F10108FCD142EA4402C6F8A8720C46A6
:10400000641EFDD1D6F80442C6F8A8529A460B4663
:104010005B1EFDD142EA8403012B18D0022B7DD018
:10402000042B7BD01CF1210C0CD0C6F8A8720846DA
:10403000401EFDD1C6F8A8520846401EFDD1BCF175
:10404000010CF2D1C6F88852C6F8C452D0E08007FD
:1040500042D54FF0000844462022C6F8A872084610
:10406000401EFDD1D6F804C2C6F8A8520846401E2C
:10407000FDD14FEA5800644440EACC78521EECD19E
:104080003046C6F8A872D4460A46521EFDD1D0F872
:104090000422C0F8A852491EFDD15440E10700D0C7
:1040A0000823B9F1000F01D0C9F800809CF8142052
:1040B0006AB1DAF80440C0F8A8722146491EFDD161
:1040C000C0F8A8522146491EFDD1521EF3D1C0F8B6
:1040D0008852C0F8C4523AE0BCF1000F0CD0C6F8C8
:1040E000A8720846401EFDD1C6F8A8520846401ED8
:1040F000FDD1ACF1010CEFE7C6F88852C6F8C45206
:10410000D9F800004FF0000C202400F00102C6F89E
:104110008422C6F8A8720A46521E00E02BE0FBD1AA
:10412000C6F8A8520A46521EFDD184444008641EB7
:10413000EBD10CF001003246C6F88402C6F8A87232
:104140000846401EFDD1C2F8A852491EFDD19AF87A
:104150000820A2B3C6F88472DAF80440C6F8A87240
:104160002046401EFDD1C6F8A8522146491EFDD169
:10417000521EF3D13CE09AF81580B8F1000F0ED032
:1041800082070CD52124C6F8A8720A46521EFDD11A
:10419000C6F8A8520A46521EFDD1641EF3D1BCF1E6
:1041A000000F0DD0C6F8A8720A46521EFDD1C6F8FF
:1041B000A8520A46521EFDD1ACF1010CEFE717E000
:1041C000C6F88852C6F8C452B8F1000F10D0800764
:1041D0000ED4C6F884722122C6F8A8720846401E82
:1041E000FDD1C6F8A8520846401EFDD1521EF3D19B
:1041F000C6F88452D8B2BDE8F08700000000A7429C
:10420000EC83FF1FF0B5124C00231A469C464FF07A
:10421000010E0E4F666816E012B911F8013B082234
:10422000DC0702D0C7F884E201E0C7F884C2C7F80F
:10423000A8C23446641EFDD1C7F8A8E235466D1EFB
:10424000FDD15B08521E401EE6D2F0BD0000A74221
:10425000EC83FF1F2DE9F05F894604464FF0FF37DE
:104260004FF0040A0026F1B2204600F0D1FB44488A
:10427000006A0121C0F3021001FA00F2414800680F
:10428000B0FBF2F0A2699207520F9140B0FBF1F23D
:10429000F2B3E06800EE109AF2EE000AC0F3C0300C
:1042A000B8EE400AB0EE001A60EE200A00EE100AE6
:1042B000B8EE400A31EE400A60EE800A00EE102AA5
:1042C000B8EE401A81EE200AF7EE000A30EE600ADE
:1042D000FCEEC00AB5EEC00A10EE905AF1EE10FAEC
:1042E00034DBFF2D32D800EE905A274B4FF0000AF6
:1042F000F8EE600A30EE600A10EE101A99422BDDDB
:1043000002214FF0000BD0EB01016BEB0B0700E03B
:104310001CE0681CA1FB003807FB00804BF1000C7F
:1043200001FB0C0CA3FB09080CFB098103FB0B111F
:10433000C90241EA5051C0020023FCF7A5F86FF012
:104340007F0147187F2F09D94FF0040A761C032EEE
:1043500089DD5046BDE8F09F7F2F03D8E06840F02C
:10436000005002E0E06820F00050E060A06867F3D1
:104370000600A060A06865F30F20A060E9E70000D8
:10438000004005400482FF1FACC5273770B58EB0D2
:10439000FFF75AFC002505950695142168460C95F3
:1043A000FCF7CAF801268DF8145002248DF8156028
:1043B0008DF818408DF816508DF819408DF817605B
:1043C0008DF81A6005A8FCF7B3FA8DF831508DF816
:1043D00032408DF830600CA8FCF7B2FB0120FCF7EE
:1043E00073FB2A200725CDE902500094049601941E
:1043F0000020FCF7EDF96846FCF7A6F9FDF778F91F
:104400000420FDF76DF9FDF711F90120FCF768F9BB
:104410000220FCF743F90128FAD10520FCF7EAF95C
:104420005420CDE90A0407950895099507A8FCF7DB
:1044300007FB0120FCF7D6FA0320FCF72FF901282F
:10444000FAD10B20FCF722FA0EB070BD70B51B49F3
:1044500091F826001A4E00F007021A4875104FF422
:104460000043062A05D2DFE802F003050705070925
:10447000066070BD056070BD036070BDD1F800219D
:10448000C2F3C014D1F80021D1F80031C2F30822E0
:10449000D1F800111B0F01F01F015CB1002CECD012
:1044A000491CB6FBF1F1521C51435B1CB1FBF3F10B
:1044B000016070BD491CB5FBF1F1F4E70040054017
:1044C0000024F4000482FF1F0348016841F47001D6
:1044D0000160FFF7BBBF000088ED00E0BFF34F8F26
:1044E00004480168044A01F4E06111430160BFF32C
:1044F0004F8FFEE70CED00E00400FA051E4B10B5EF
:10450000042298420ED01D4CA0420BD01C4CA0425D
:1045100008D01C4CA04205D01B4CA04202D01B4C22
:10452000A04224D119B30C78D0F8802064F307128C
:10453000C0F880204C78D0F8802064F38202C0F864
:1045400080208C78D0F8802064F34102C0F880206D
:10455000984202D1CA78012A0BD0CB78D0F88020BB
:1045600063F3C302C0F880200022898841601046AE
:1045700010BD0622F9E70000005001400054014040
:1045800000580140005C01400060014000640140AF
:10459000284B042298420ED0274B98420BD0274B31
:1045A000984208D0264B984205D0264B984202D01C
:1045B000254B984213D10A2910D2DFE801F0050AF1
:1045C00012171C21262B303550F89C1F21F00101B9
:1045D00003E050F89C1F21F0020101600022104608
:1045E000704750F89C1F21F00401F6E750F89C1F1B
:1045F00021F00801F1E750F89C1F21F01001ECE7D1
:1046000050F89C1F21F02001E7E750F89C1F21F093
:104610004001E2E750F89C1F21F08001DDE750F8EF
:10462000801F21F48041D8E750F8801F21F4004119
:10463000D3E7000000500140005401400058014001
:10464000005C014000600140006401400D4B042209
:1046500098420ED00C4B98420BD00C4B984208D08D
:104660000B4B984205D00B4B984202D00A4B984214
:1046700005D150F8802F61F300020260002210463D
:1046800070470000005001400054014000580140B4
:10469000005C0140006001400064014010B50F4C17
:1046A0000423A0420ED00E4CA0420BD00D4CA042D1
:1046B00008D00D4CA04205D00C4CA04202D00C4CAE
:1046C000A04208D100EB8100D0F8401162F30C3118
:1046D000C0F840110023184610BD000000500140F2
:1046E0000054014000580140005C0140006001405E
:1046F0000064014030B52F4C0423A0420ED02E4C54
:10470000A0420BD02D4CA04208D02D4CA04205D089
:104710002C4CA04202D02C4CA04248D1F2B300EB6A
:10472000810404F5A0709578036865F301030360C4
:10473000D578036865F3830303601579036865F32F
:10474000051303605579036865F387130360957952
:10475000036865F30923036029B1022903D0042902
:1047600001D0062915D104F1C003517A186861F30C
:1047700041001860117A186861F382001860D179DD
:10478000186861F3000018605389616C63F30F01CE
:1047900061641288216C62F30F0100E007E021647C
:1047A000D4F8000120F00100C4F8000100231846ED
:1047B00030BD00000050014000540140005801404D
:1047C000005C014000600140006401400C4B00228D
:1047D00098420ED00B4B98420BD00B4B984208D00E
:1047E0000A4B984205D00A4B984202D0094B984296
:1047F00003D100EB8100006C82B2104670470000CC
:10480000005001400054014000580140005C01404C
:1048100000600140006401400B4A002190420ED02C
:104820000A4A90420BD00A4A904208D0094A904264
:1048300005D0094A904202D0084A904201D140680E
:1048400081B208467047000000500140005401400A
:1048500000580140005C01400060014000640140DC
:1048600010B5284C0423A0420ED0274CA0420BD0F8
:10487000264CA04208D0264CA04205D0254CA04290
:1048800002D0254CA04213D10A2910D2DFE801F052
:10489000050A12171C21262B303550F8901F62F3A1
:1048A000000103E050F8901F62F341010160002312
:1048B000184610BD50F8901F62F38201F6E750F8D9
:1048C000901F62F3C301F1E750F8901F62F30411E7
:1048D000ECE750F8901F62F34511E7E750F8901F9E
:1048E00062F38611E2E750F8901F62F3C711DDE72B
:1048F00050F8801F62F30C31D8E750F8801F62F344
:104900004D31D3E7005001400054014000580140B0
:10491000005C0140006001400064014010B50E4C95
:104920000423A0420ED00D4CA0420BD00C4CA04250
:1049300008D00C4CA04205D00B4CA04202D00B4C2E
:10494000A04206D100EB8100416C62F30F0141648B
:104950000023184610BD00000050014000540140E3
:1049600000580140005C01400060014000640140CB
:10497000134A10B51146137888884988012B15D041
:10498000083989B25180B1EB500F03D240085080F2
:10499000012010700B4C528806212046FFF7BEFF05
:1049A0002046BDE810400821FFF7F2BD083189B26A
:1049B000083851808142EDDD50800020E9E7000099
:1049C000FC81FF1F006401400D4A0421904208D081
:1049D0000C4A904205D00C4A904202D00B4A9042B9
:1049E0000BD16FF00C01C160C907C16000210161EA
:1049F00041614FF6FF728260816108467047000096
:104A000000D0014000D401400010024000140240D8
:104A1000094B0422984208D0084B984205D0084B15
:104A2000984202D0074B984204D1826961F3010297
:104A3000826100221046704700D0014000D401403E
:104A400000100240001402401FB5002204460092EC
:104A50000192029203929C4B04209C4208D09B4BF3
:104A60009C4205D09A4B9C4202D09A4B9C427DD1ED
:104A700000297BD06FF00C00E060C007E06022618D
:104A800062614FF6FF70A060A261039820F02000E1
:104A90000390019820F0807001904A78009862F3AA
:104AA000010000908A78019862F30C300190CA7876
:104AB000019862F31C7001900A79029862F34D30FC
:104AC00002900A78029862F3CC200290487920B1D3
:104AD000012806D0022809D1EEE0019820F4806078
:104AE00003E0019820F40070E9E001900A7A03984D
:104AF00062F349200390CA79019862F3DF70019054
:104B00008979019861F3CF3001900098A16960F331
:104B10000101A1610098A0610198E16860F30001C2
:104B2000E16001984108E06861F34100E0600198AC
:104B30008108E06861F38200E0600198C108E068E4
:104B400061F3C300E06001980109E06861F30410BB
:104B5000E06001984109E06861F34510E060019868
:104B60008109E06861F38610E06000E0A2E001984E
:104B7000C109E06861F3C710E0609DF8050060734B
:104B80000198410AE06861F34920E0600198810AD8
:104B9000E06861F38A20E0609DF805006073019889
:104BA000010BE06861F30C30E0609DF80500607374
:104BB0000198C10BE06861F3CF30E0600198010C0F
:104BC000E06861F31040E0600198410CE06861F337
:104BD0005140E0609DF80600A0730198C10CE068A8
:104BE00061F3D340E0600198010DE06861F3145077
:104BF000E0609DF80600A0730198010EE06861F383
:104C00001860E0609DF80700E0730198010FE0680C
:104C100061F31C70E0600198410FE06861F35D7022
:104C2000E0600198810FE06861F39E70E060019898
:104C3000C10FE06861F3DF70E0600298216960F302
:104C400000012161BDF8080020820298C10A206994
:104C500061F3CC2020610298410B206961F34D3053
:104C6000206103220DF1090104F11100FBF73DFC65
:104C70009DF80C00207503984109606961F34510A7
:104C80006061BDF80C00A0820398410A606961F37D
:104C9000492060619DF80D0060759DF80E00A075BB
:104CA0000398410D606961F3575060619DF80F00F2
:104CB000E075002004B010BD019840F40070019030
:104CC000019840F4806010E700D0014000D401401A
:104CD0000010024000140240002070470348D0E951
:104CE0000410081A02490988081A70472083FF1F18
:104CF00076C4020070B50B4D0C460346D5E90C0195
:104D000088420BD9401A844200DD044622461846E8
:104D1000FBF7EBFB686B2044686300E0002420464F
:104D200070BD00002083FF1F002070472DE9F04177
:104D3000194F0C460646D7E90401401A174909885D
:104D4000081A002802DC0020BDE8F081844200DD62
:104D50000446D7E90602002590420FD3104B0219F2
:104D600019448A420AD30D1A98462A463146FBF75F
:104D7000BCFB2E44641B4046C7F8188034B1224661
:104D80003146FBF7B2FBB8692044B8613969601954
:104D900001443961D8E700002083FF1F76C4020078
:104DA000F6C4FF1F10B5054C6068002805D101202E
:104DB000606000F005F80020606010BD2083FF1FD8
:104DC0002DE9F047244CA06800283ED0D4E9040126
:104DD000421AE0684FF0000652EA000137D021463F
:104DE0001E4FC969DFF87880DFF878901E4D7AB1E0
:104DF000A069814205D338888B182844834200D3A8
:104E0000421A99F8003038F81300904200DA02464E
:104E10001648E660007840F0800001F075FDE16919
:104E20000144E1616269024462613B882B448B4228
:104E300000D1E561216991420BD199F8002038F841
:104E40001210814205D10120E060BDE8F087A66024
:104E5000FBE7E660F9E700002083FF1F76C402004D
:104E60007AC402006383FF1FF6C4FF1F74C40200EC
:104E700010B50B4C206A18B1A06A401CA06210BD8E
:104E800001202062606200F00DF800206062206264
:104E9000D4E90C018842F2D0401AFFF745FF10BD5B
:104EA0002083FF1F10B5134C1348164B216B0A1AB1
:104EB00012481B780088821A114830F81300824289
:104EC0000EDB1148007801F0F7F8216B08442063ED
:104ED000A06A00280CD0616A002909D1401E06E0B2
:104EE0000120E062606A002802D0A06A401CA06233
:104EF00010BD00002083FF1FF6C6FF1F78C402000C
:104F00007AC402006383FF1F75C4020010B5044613
:104F1000400702D52046FFF7ABFF200704D5204607
:104F2000BDE81040FFF73EBF10BD7047002070473E
:104F30000020704710B50C4800F042F8002812D04D
:104F40000948FBF733FB0949020A08704A70020C52
:104F50008A70000EC870044802790A7142794A7159
:104F600080798871012010BD5883FF1F34C4FF1F52
:104F700010B510480024104944608460C460046186
:104F8000C0E90541C0E9071444620C498462C0E9E4
:104F90000B414163048000F138014FF41650FBF7D8
:104FA0000FFB04480821383004714471817100F00E
:104FB00019F810BD2083FF1FF6C4FF1FF6C6FF1FA0
:104FC00070B5074D044621462868FBF7F9FA2879A1
:104FD000A07168796071A8792071012070BD00000E
:104FE000E483FF1F10B505F0BDFC03F02BF9012091
:104FF00010BD10B505F05AFD012010BD012070470D
:1050000010B50446FBF7D2FA07490860A079087189
:1050100060794871207988710020C871BDE810401E
:10502000084605F055BD0000E483FF1F10B5114888
:105030000024114944608460C4600461C0E90541F2
:10504000C0E9071444620D498462C0E90B41416321
:105050000480FFF7CEFF07494FF416503831FBF7B5
:10506000AFFA044808213830047144718171FFF7A8
:10507000C7FF10BD2083FF1FF6C4FF1FF6C6FF1F2A
:1050800010B5FFF7D3FF10BD70B5194800780028A0
:105090002DD0184C00250126206A50B9D4E90C0106
:1050A000884206D11449884203D02163E562256213
:1050B0006163A06A70B1206A60B9E06A50B9266283
:1050C000FFF7F0FE2562D4E90C01884202D0401AB5
:1050D000FFF72AFED4E90101084308D1D4E904010D
:1050E000884204D06660A660FFF76AFE656070BD06
:1050F0006183FF1F2083FF1FF6C6FF1F70B50446A4
:105100000D480068C1698847A0B90C4DDFF830C070
:105110002CB100DF2860002005F0ACFA0AE000DFC7
:105120002968401AB0F5967F01D3012000E00020E5
:1051300003F094F8012070BD60C00200E083FF1FFF
:10514000899602000020704700207047024910B580
:105150000880FFF753FF10BD2083FF1F70B50A4C76
:105160002046E578FBF722FA65F31F600749FBF755
:1051700027FA06482179017161794171A17981711C
:10518000FFF73EFF70BD000034C4FF1F5883FF1FB0
:1051900010B51E49020614D401EB4010D0F8001BD4
:1051A000C1F38141012905D9D0F8001B41F080519C
:1051B000C0F8001BD0F8001B21F40011C0F8001B40
:1051C00010BD20F0800001EB4014D4F80019002934
:1051D00005DAD4F8001941F08041C4F8001940F014
:1051E000800000F09BFBD4F80009C0F38140012847
:1051F00005D9D4F8000940F08050C4F80009D4F86B
:10520000000920F40010C4F8000910BD00000C4093
:10521000F0B583784279047923F08001C0781E06C6
:1052200044EA02221D4D1E4B00F003004FF0010422
:1052300016D52E688C4026432E608C0544EA8044A7
:10524000C2F30A0203EB41111443C1F800490128DB
:1052500005D9D1F8000940F08050C1F80009F0BD2F
:10526000104EC2F30A0246F821202E6801F1100701
:10527000BC4026432E6003EB411142EA8044C1F852
:10528000004B42F40022C1F8102B0128E7D9D1F8D5
:10529000000B40F08050C1F8000BF0BD1C080C4022
:1052A00000000C408482FF1F0248416821F0010188
:1052B000416070476482FF1F00F046BB054900282B
:1052C000086802D020F0020001E040F0020008600F
:1052D0007047000004080C4010B50B4C0B48A28826
:1052E0000078824200D902461AB9074900201439D1
:1052F00008718020216801F007FB216801442160CA
:10530000A188081AA08010BD7483FF1F5EC402002C
:1053100010B5064C0020A288216800F0CDFE21685F
:1053200001442160A188081AA08010BD7483FF1F6A
:105330007047000030B52B4B010620D52A4920F0DC
:105340008000012282404C6803EB401094434C6083
:10535000D0F80019002905DAD0F8001941F0804191
:10536000C0F80019D0F8001941F00061C0F8001928
:10537000D0F8001921F40041C0F8001930BD1B4CD1
:10538000216841F4007121604FF47A72114601E006
:10539000491E02D35D692D06FAD503EB4010D0F803
:1053A000001B002905DAD0F8001B41F08041C0F84D
:1053B000001BD0F8001B41F00061C0F8001BD0F8C2
:1053C000001B21F40041C0F8001B01E0521E03D372
:1053D000D0F8081B8907F9D5206840F48060206068
:1053E00030BD000000000C406482FF1F04080C4028
:1053F000134A01061AD520F0800102EB4110D0F8C3
:105400000029104B1A43C0F80029D0F80029002ABF
:1054100005DAD0F8002942F08042C0F800290A4895
:1054200001228A40416891434160704702EB40107D
:10543000D0F8001B054A1143C0F8001B704700005C
:1054400000000C40008000086482FF1F0080008480
:105450002DE9F0476E4F0446A7F1080580074FF08D
:105460000009A5F1140622D501F02CFA3878C009FC
:10547000FFF75EFFF888A8803878C0F3411121B1AA
:1054800001295AD002296FD165E07978DFF884814B
:105490000C2969D2DFE801F0060C68136818276848
:1054A0002B31384600F03EFF1FE0FFF715FF67E0A5
:1054B000002005E001F016FAD8F8000039E00120DC
:1054C00000F070FFC0B3F5E710F01F0F4CD1B878B3
:1054D000012140F08000307000F07F0001F098F969
:1054E00001F000FA4CE000F019FE28B3DDE710F0FF
:1054F0001F0F39D146481B3812E000F0A3FFD8B186
:1055000001F0F0F9444813E000F01F0001282BD10E
:10551000707888B13879B178884225D23F490844FB
:105520002860C2E701F054F830B101F0DBF93C48E3
:10553000006828B3804723E016E010F01F0013D066
:10554000012811D100F00AF9D0B900F063F9B8B917
:1055500000F0B2F807E010F01F0F05D100F05CF981
:1055600070B900F0A3F958B93878000603D4F88868
:1055700008B1002000E0802001F056F9A5F8049061
:10558000600721D5387800061CD4A888E0B1FFF761
:10559000BFFEA888C0B93878C0F3411161B10129B4
:1055A0000AD110F01F0007D0012805D100F066F8DD
:1055B00050B900F037F838B9802001F035F9A5F876
:1055C000049001E001F094F9200712D53878000624
:1055D00006D5A888317908430BD0FFF77DFE08E097
:1055E0003078010605D500F07F003070002101F011
:1055F0000FF9600602D50020FFF7CAFD200604D58A
:10560000BDE8F0478020FFF7C3BDBDE8F08700008C
:105610007C83FF1FD8C40200D0C402005882FF1F41
:10562000D4C4020010B51249124A08791278904287
:1056300003D0114A1278904217D1487820B102283D
:1056400005D0202811D10DE0FFF77CFD05E0C878DA
:10565000897841EA0020FFF777FD30B101F042F987
:10566000012010BDFFF77AFDF7E7002010BD000014
:105670007C83FF1F72C4020073C4020010B50B4983
:105680000B4A08791278904203D00A4A1278904265
:1056900009D14878092806D100F05EFB18B101F065
:1056A00021F9012010BD002010BD00007C83FF1FE8
:1056B0005FC4020060C4020070B52349234A087920
:1056C0001278904203D0224A127890423AD11E4872
:1056D0004978204CC27883781F4D43EA0220042980
:1056E0001FD007DC79B101290FD002290BD0032983
:1056F00028D111E0202906D0212919D022291AD039
:1057000023291FD11AE02C6010E0FFF711FC05E0FF
:105710002C60FFF7E1FD09E0FFF708FC0028F7D156
:1057200010E0FFF7D9FA0BE001F0DCF8012070BDC2
:10573000FFF700FCF2E7FFF709FD01E0FFF7DEFCF1
:105740000028F1D1002070BD7C83FF1F72C40200CD
:1057500073C4020034C4FF1F7483FF1F2DE9F0419E
:10576000244E254930790978884203D023490978A5
:1057700088423CD17078224C224D234F0C2836D2DF
:10578000DFE800F03506212C353535353516243166
:1057900000F0FEF958B3F078012802D0032803D0B6
:1057A00003E01A48206000E02560FFF795FD12E055
:1057B000F078022802D0032803D00CE014482060BF
:1057C00009E0256007E000F0CBF909E000F09EFA5F
:1057D0000BE001F087F80120BDE8F08100F0CEF980
:1057E00028B12760E1E700F0ADFA0028F1D10020F0
:1057F000F2E700007C83FF1F5FC4020060C4020068
:105800007483FF1F6282FF1F34C4FF1F75C4FF1F14
:10581000B6C4FF1F0020704770B51E4D1E490026FC
:1058200068780978884232D16879297941EA00207C
:1058300002282CD1194CAA782AB3002003E0217841
:1058400001B10C44401C411C8A42F8D82078C8B1F0
:1058500002F0FAFA0146E01CFAF779FE104A012636
:105860001460E979AB79207843EA012181420BD9B0
:105870000C4990800978491E084206D10A49012046
:10588000087002E0002602E09180FFF725FD304617
:1058900070BD00007C83FF1F7EC402001982FF1FC1
:1058A0007483FF1F5EC402006483FF1F10B5154A96
:1058B0001549002450780978884220D1507911790F
:1058C00041EA002007281AD1114B10480124186022
:1058D000417A007A40EA0121D079927942EA0020A7
:1058E000884209D90B4899800078401E014204D1B2
:1058F00009490120087000E09880FFF7EDFC204680
:1059000010BD00007C83FF1F7FC4020016C502008B
:105910007483FF1F5EC402006483FF1F20F08002B7
:1059200008480A21036923F4F86343EA821242F02B
:105930002002026101E0491E02D302699206FAD4F4
:105940007047000000000C40074800214170C16012
:1059500001614161418081808161C161C1800181BA
:1059600001624181704700008483FF1F2DE9F047E9
:10597000484EB0887188494FDFF81C817D1C002497
:10598000884216D3B069A0B97461B4800123397814
:105990007A1C184605F082FB7080708848B17761E8
:1059A00098F80000012801D8756102E07088401C59
:1059B000708070884FF00109B0BBF06808B1F460E6
:1059C00032E0316981B398F8000001280DD83C70AD
:1059D000B48002237A1C0021012005F05FFB708057
:1059E000708800B1756134611EE03D78C846202D95
:1059F00000D3002508FA05F0084218D0681CC1B28F
:105A00003970B48002237A1C012005F047FB7080B6
:105A1000708818B177617088401C7080306908FA0E
:105A200005F820EA08003061708830B902E06D1C8A
:105A3000EDB2DCE7B069002828D07088B188DFF8C3
:105A40006480401A85B2164F98F8000037F81000AD
:105A5000A84200D2054614482A467169007840F0F1
:105A6000800000F051FF7069104928447061B088CF
:105A7000284480B2B0800988884209D298F8000092
:105A800037F81000A84203D1C6F81890BDE8F08797
:105A9000B461FBE78483FF1F6CC4020074C4FF1F62
:105AA00068C402006383FF1F61C402006EC4020069
:105AB000F8B51C4C1C4D1D4F2089002618B9E56116
:105AC0003888E0802681E0882189421A1848E169F7
